{
  "contractName": "Crowdfunding",
  "abi": [
    {
      "anonymous": false,
      "inputs": [
        {
          "indexed": false,
          "internalType": "uint256",
          "name": "campaignId",
          "type": "uint256"
        },
        {
          "indexed": false,
          "internalType": "address",
          "name": "creator",
          "type": "address"
        },
        {
          "indexed": false,
          "internalType": "uint256",
          "name": "amountRaised",
          "type": "uint256"
        }
      ],
      "name": "CampaignCompleted",
      "type": "event"
    },
    {
      "anonymous": false,
      "inputs": [
        {
          "indexed": false,
          "internalType": "uint256",
          "name": "campaignId",
          "type": "uint256"
        },
        {
          "indexed": false,
          "internalType": "address",
          "name": "creator",
          "type": "address"
        },
        {
          "indexed": false,
          "internalType": "string",
          "name": "title",
          "type": "string"
        },
        {
          "indexed": false,
          "internalType": "uint256",
          "name": "goal",
          "type": "uint256"
        }
      ],
      "name": "CampaignCreated",
      "type": "event"
    },
    {
      "anonymous": false,
      "inputs": [
        {
          "indexed": false,
          "internalType": "uint256",
          "name": "campaignId",
          "type": "uint256"
        },
        {
          "indexed": false,
          "internalType": "address",
          "name": "contributor",
          "type": "address"
        },
        {
          "indexed": false,
          "internalType": "uint256",
          "name": "amount",
          "type": "uint256"
        }
      ],
      "name": "ContributionReceived",
      "type": "event"
    },
    {
      "inputs": [
        {
          "internalType": "uint256",
          "name": "",
          "type": "uint256"
        }
      ],
      "name": "campaigns",
      "outputs": [
        {
          "internalType": "address payable",
          "name": "creator",
          "type": "address"
        },
        {
          "internalType": "string",
          "name": "title",
          "type": "string"
        },
        {
          "internalType": "string",
          "name": "description",
          "type": "string"
        },
        {
          "internalType": "uint256",
          "name": "goal",
          "type": "uint256"
        },
        {
          "internalType": "uint256",
          "name": "amountRaised",
          "type": "uint256"
        },
        {
          "internalType": "bool",
          "name": "completed",
          "type": "bool"
        }
      ],
      "stateMutability": "view",
      "type": "function",
      "constant": true
    },
    {
      "inputs": [
        {
          "internalType": "string",
          "name": "_title",
          "type": "string"
        },
        {
          "internalType": "string",
          "name": "_description",
          "type": "string"
        },
        {
          "internalType": "uint256",
          "name": "_goal",
          "type": "uint256"
        }
      ],
      "name": "createCampaign",
      "outputs": [],
      "stateMutability": "nonpayable",
      "type": "function"
    },
    {
      "inputs": [
        {
          "internalType": "uint256",
          "name": "_campaignId",
          "type": "uint256"
        }
      ],
      "name": "getCampaign",
      "outputs": [
        {
          "internalType": "address",
          "name": "",
          "type": "address"
        },
        {
          "internalType": "string",
          "name": "",
          "type": "string"
        },
        {
          "internalType": "string",
          "name": "",
          "type": "string"
        },
        {
          "internalType": "uint256",
          "name": "",
          "type": "uint256"
        },
        {
          "internalType": "uint256",
          "name": "",
          "type": "uint256"
        },
        {
          "internalType": "bool",
          "name": "",
          "type": "bool"
        }
      ],
      "stateMutability": "view",
      "type": "function",
      "constant": true
    },
    {
      "inputs": [
        {
          "internalType": "uint256",
          "name": "_campaignId",
          "type": "uint256"
        }
      ],
      "name": "contributeCampaign",
      "outputs": [],
      "stateMutability": "payable",
      "type": "function",
      "payable": true
    },
    {
      "inputs": [],
      "name": "getCampaignCount",
      "outputs": [
        {
          "internalType": "uint256",
          "name": "",
          "type": "uint256"
        }
      ],
      "stateMutability": "view",
      "type": "function",
      "constant": true
    }
  ],
  "bytecode": "0x608060405234801561001057600080fd5b50611233806100206000396000f3fe608060405260043610610067576000357c010000000000000000000000000000000000000000000000000000000090048063141961bc1461006c5780635598f8cc146100ae5780636caa9218146100f0578063976d872d1461011b578063ffa56a5714610137575b600080fd5b34801561007857600080fd5b50610093600480360381019061008e919061086a565b610160565b6040516100a596959493929190610992565b60405180910390f35b3480156100ba57600080fd5b506100d560048036038101906100d0919061086a565b6102e9565b6040516100e796959493929190610a22565b60405180910390f35b3480156100fc57600080fd5b5061010561048f565b6040516101129190610a91565b60405180910390f35b6101356004803603810190610130919061086a565b61049b565b005b34801561014357600080fd5b5061015e60048036038101906101599190610be1565b6106b2565b005b6000818154811061017057600080fd5b90600052602060002090600602016000915090508060000160009054906101000a900473ffffffffffffffffffffffffffffffffffffffff16908060010180546101b990610c9b565b80601f01602080910402602001604051908101604052809291908181526020018280546101e590610c9b565b80156102325780601f1061020757610100808354040283529160200191610232565b820191906000526020600020905b81548152906001019060200180831161021557829003601f168201915b50505050509080600201805461024790610c9b565b80601f016020809104026020016040519081016040528092919081815260200182805461027390610c9b565b80156102c05780601f10610295576101008083540402835291602001916102c0565b820191906000526020600020905b8154815290600101906020018083116102a357829003601f168201915b5050505050908060030154908060040154908060050160009054906101000a900460ff16905086565b60006060806000806000806000888154811061030857610307610ccc565b5b906000526020600020906006020190508060000160009054906101000a900473ffffffffffffffffffffffffffffffffffffffff168160010182600201836003015484600401548560050160009054906101000a900460ff1684805461036d90610c9b565b80601f016020809104026020016040519081016040528092919081815260200182805461039990610c9b565b80156103e65780601f106103bb576101008083540402835291602001916103e6565b820191906000526020600020905b8154815290600101906020018083116103c957829003601f168201915b505050505094508380546103f990610c9b565b80601f016020809104026020016040519081016040528092919081815260200182805461042590610c9b565b80156104725780601f1061044757610100808354040283529160200191610472565b820191906000526020600020905b81548152906001019060200180831161045557829003601f168201915b505050505093509650965096509650965096505091939550919395565b60008080549050905090565b60008054905081106104e2576040517f08c379a00000000000000000000000000000000000000000000000000000000081526004016104d990610d47565b60405180910390fd5b60008082815481106104f7576104f6610ccc565b5b906000526020600020906006020190508060050160009054906101000a900460ff1615610559576040517f08c379a000000000000000000000000000000000000000000000000000000000815260040161055090610db3565b60405180910390fd5b3481600401600082825461056d9190610e02565b925050819055507f865c884d49c8cecaef108efb20f7d282f26c0f9b0d24dd48e5592d4e02ec658d8233346040516105a793929190610e36565b60405180910390a180600301548160040154106106ae578060000160009054906101000a900473ffffffffffffffffffffffffffffffffffffffff1673ffffffffffffffffffffffffffffffffffffffff166108fc82600401549081150290604051600060405180830381858888f1935050505015801561062c573d6000803e3d6000fd5b5060018160050160006101000a81548160ff0219169083151502179055507f069abd4827b402fd5b2526e40d33276343c894339b293b05d17e3b7ca50dc9f5828260000160009054906101000a900473ffffffffffffffffffffffffffffffffffffffff1683600401546040516106a593929190610ecc565b60405180910390a15b5050565b60006040518060c001604052803373ffffffffffffffffffffffffffffffffffffffff1681526020018581526020018481526020018381526020016000815260200160001515815250908060018154018082558091505060019003906000526020600020906006020160009091909190915060008201518160000160006101000a81548173ffffffffffffffffffffffffffffffffffffffff021916908373ffffffffffffffffffffffffffffffffffffffff160217905550602082015181600101908161078091906110ab565b50604082015181600201908161079691906110ab565b50606082015181600301556080820151816004015560a08201518160050160006101000a81548160ff02191690831515021790555050507f825fb10f7650ed27414d6f86acdf7d5946927d9b25001f045f1a2435deec02fe6001600080549050610800919061117d565b33858460405161081394939291906111b1565b60405180910390a1505050565b6000604051905090565b600080fd5b600080fd5b6000819050919050565b61084781610834565b811461085257600080fd5b50565b6000813590506108648161083e565b92915050565b6000602082840312156108805761087f61082a565b5b600061088e84828501610855565b91505092915050565b600073ffffffffffffffffffffffffffffffffffffffff82169050919050565b60006108c282610897565b9050919050565b6108d2816108b7565b82525050565b600081519050919050565b600082825260208201905092915050565b60005b838110156109125780820151818401526020810190506108f7565b60008484015250505050565b6000601f19601f8301169050919050565b600061093a826108d8565b61094481856108e3565b93506109548185602086016108f4565b61095d8161091e565b840191505092915050565b61097181610834565b82525050565b60008115159050919050565b61098c81610977565b82525050565b600060c0820190506109a760008301896108c9565b81810360208301526109b9818861092f565b905081810360408301526109cd818761092f565b90506109dc6060830186610968565b6109e96080830185610968565b6109f660a0830184610983565b979650505050505050565b6000610a0c82610897565b9050919050565b610a1c81610a01565b82525050565b600060c082019050610a376000830189610a13565b8181036020830152610a49818861092f565b90508181036040830152610a5d818761092f565b9050610a6c6060830186610968565b610a796080830185610968565b610a8660a0830184610983565b979650505050505050565b6000602082019050610aa66000830184610968565b92915050565b600080fd5b600080fd5b7f4e487b7100000000000000000000000000000000000000000000000000000000600052604160045260246000fd5b610aee8261091e565b810181811067ffffffffffffffff82111715610b0d57610b0c610ab6565b5b80604052505050565b6000610b20610820565b9050610b2c8282610ae5565b919050565b600067ffffffffffffffff821115610b4c57610b4b610ab6565b5b610b558261091e565b9050602081019050919050565b82818337600083830152505050565b6000610b84610b7f84610b31565b610b16565b905082815260208101848484011115610ba057610b9f610ab1565b5b610bab848285610b62565b509392505050565b600082601f830112610bc857610bc7610aac565b5b8135610bd8848260208601610b71565b91505092915050565b600080600060608486031215610bfa57610bf961082a565b5b600084013567ffffffffffffffff811115610c1857610c1761082f565b5b610c2486828701610bb3565b935050602084013567ffffffffffffffff811115610c4557610c4461082f565b5b610c5186828701610bb3565b9250506040610c6286828701610855565b9150509250925092565b7f4e487b7100000000000000000000000000000000000000000000000000000000600052602260045260246000fd5b60006002820490506001821680610cb357607f821691505b602082108103610cc657610cc5610c6c565b5b50919050565b7f4e487b7100000000000000000000000000000000000000000000000000000000600052603260045260246000fd5b7f43616d706169676e20646f6573206e6f74206578697374000000000000000000600082015250565b6000610d316017836108e3565b9150610d3c82610cfb565b602082019050919050565b60006020820190508181036000830152610d6081610d24565b9050919050565b7f43616d706169676e20697320616c726561647920636f6d706c65746564000000600082015250565b6000610d9d601d836108e3565b9150610da882610d67565b602082019050919050565b60006020820190508181036000830152610dcc81610d90565b9050919050565b7f4e487b7100000000000000000000000000000000000000000000000000000000600052601160045260246000fd5b6000610e0d82610834565b9150610e1883610834565b9250828201905080821115610e3057610e2f610dd3565b5b92915050565b6000606082019050610e4b6000830186610968565b610e586020830185610a13565b610e656040830184610968565b949350505050565b6000819050919050565b6000610e92610e8d610e8884610897565b610e6d565b610897565b9050919050565b6000610ea482610e77565b9050919050565b6000610eb682610e99565b9050919050565b610ec681610eab565b82525050565b6000606082019050610ee16000830186610968565b610eee6020830185610ebd565b610efb6040830184610968565b949350505050565b60008190508160005260206000209050919050565b60006020601f8301049050919050565b60008160020a8302905092915050565b600060088302610f687fffffffffffffffffffffffffffffffffffffffffffffffffffffffffffffffff82610f28565b610f728683610f28565b95508019841693508086168417925050509392505050565b6000610fa5610fa0610f9b84610834565b610e6d565b610834565b9050919050565b6000819050919050565b610fbf83610f8a565b610fd3610fcb82610fac565b848454610f38565b825550505050565b600090565b610fe8610fdb565b610ff3818484610fb6565b505050565b5b818110156110175761100c600082610fe0565b600181019050610ff9565b5050565b601f82111561105c5761102d81610f03565b61103684610f18565b81016020851015611045578190505b61105961105185610f18565b830182610ff8565b50505b505050565b60008160020a8304905092915050565b600061108260001984600802611061565b1980831691505092915050565b600061109b8383611071565b9150826002028217905092915050565b6110b4826108d8565b67ffffffffffffffff8111156110cd576110cc610ab6565b5b6110d78254610c9b565b6110e282828561101b565b600060209050601f8311600181146111155760008415611103578287015190505b61110d858261108f565b865550611175565b601f19841661112386610f03565b60005b8281101561114b57848901518255600182019150602085019450602081019050611126565b868310156111685784890151611164601f891682611071565b8355505b6001600288020188555050505b505050505050565b600061118882610834565b915061119383610834565b92508282039050818111156111ab576111aa610dd3565b5b92915050565b60006080820190506111c66000830187610968565b6111d36020830186610a13565b81810360408301526111e5818561092f565b90506111f46060830184610968565b9594505050505056fea264697066735822122041c93588934408e4027f51a2219e7d10d2b39ef91f3083b9562fb522f5c40b7d64736f6c63430008150033",
  "immutableReferences": {},
  "source": "// SPDX-License-Identifier: MIT\r\npragma solidity ^0.8.0;\r\n\r\ncontract Crowdfunding {\r\n    struct Campaign {\r\n        address payable creator;\r\n        string title;\r\n        string description;\r\n        uint256 goal;\r\n        uint256 amountRaised;\r\n        bool completed;\r\n    }\r\n\r\n    Campaign[] public campaigns;\r\n\r\n    event CampaignCreated(uint256 campaignId, address creator, string title, uint256 goal);\r\n    event ContributionReceived(uint256 campaignId, address contributor, uint256 amount);\r\n    event CampaignCompleted(uint256 campaignId, address creator, uint256 amountRaised);\r\n\r\n    function createCampaign(string memory _title, string memory _description, uint256 _goal) public {\r\n        campaigns.push(Campaign({\r\n            creator: payable(msg.sender),\r\n            title: _title,\r\n            description: _description,\r\n            goal: _goal,\r\n            amountRaised: 0,\r\n            completed: false\r\n        }));\r\n\r\n        emit CampaignCreated(campaigns.length - 1, msg.sender, _title, _goal);\r\n    }\r\n\r\n    function getCampaign(uint256 _campaignId) public view returns (\r\n        address, string memory, string memory, uint256, uint256, bool\r\n    ) {\r\n        Campaign storage campaign = campaigns[_campaignId];\r\n        return (\r\n            campaign.creator,\r\n            campaign.title,\r\n            campaign.description,\r\n            campaign.goal,\r\n            campaign.amountRaised,\r\n            campaign.completed\r\n        );\r\n    }\r\n\r\n    function contributeCampaign(uint256 _campaignId) public payable {\r\n        require(_campaignId < campaigns.length, \"Campaign does not exist\");\r\n        Campaign storage campaign = campaigns[_campaignId];\r\n        require(!campaign.completed, \"Campaign is already completed\");\r\n\r\n        campaign.amountRaised += msg.value;\r\n\r\n        emit ContributionReceived(_campaignId, msg.sender, msg.value);\r\n\r\n        // If goal is met, disburse funds and mark campaign as completed\r\n        if (campaign.amountRaised >= campaign.goal) {\r\n            campaign.creator.transfer(campaign.amountRaised);\r\n            campaign.completed = true;\r\n            emit CampaignCompleted(_campaignId, campaign.creator, campaign.amountRaised);\r\n        }\r\n    }\r\n\r\n    function getCampaignCount() public view returns (uint256) {\r\n        return campaigns.length;\r\n    }\r\n}\r\n",
  "sourcePath": "D:\\vscode\\BL\\Crowd Funding\\contracts\\Crowdfunding.sol",
  "compiler": {
    "name": "solc",
    "version": "0.8.21+commit.d9974bed.Emscripten.clang"
  },
  "schemaVersion": "3.4.16",
  "updatedAt": "2025-03-22T17:53:25.954Z",
  "networkType": "ethereum",
  "devdoc": {
    "kind": "dev",
    "methods": {},
    "version": 1
  },
  "userdoc": {
    "kind": "user",
    "methods": {},
    "version": 1
  }
}